:10000000801E0020A97B0000197A0000A57B00005B
:10001000A57B0000A57B0000A57B0000A57B000060
:10002000000000000000000000000000A57B0000B0
:10003000A57B000000000000A57B0000A57B000060
:10004000CD610000E56F0000317800000000000085
:1000500000000000000000000000000000000000A0
:100060000000000000000000000000000000000090
:100070000000000000000000000000000000000080
:100080000000000000000000000000000000000070
:100090000000000000000000000000000000000060
:1000A0000000000000000000000000000000000050
:1000B0000000000000000000000000000000000040
:1000C0000000000000000000000000000000000030
:1000D0000000000000000000000000000000000020
:1000E0000000000000000000000000000000000010
:1000F0000000000000000000000000000000000000
:1001000000000000000000000000000000000000EF
:1001100000000000000000000000000000000000DF
:1001200000000000000000000000000000000000CF
:1001300000000000000000000000000000000000BF
:1001400000000000000000000000000000000000AF
:10015000000000000000000000000000000000009F
:10016000000000000000000000000000000000008F
:10017000000000000000000000000000000000007F
:10018000000000000000000000000000000000006F
:10019000000000000000000000000000000000005F
:1001A000000000000000000000000000000000004F
:1001B000000000000000000000000000000000003F
:1001C000FFFFFFFFFFFFFFFFFFFFFFFFFFFFFFFF3F
:1001D000FFFFFFFFFFFFFFFFFFFFFFFFFFFFFFFF2F
:1001E000FFFFFFFFFFFFFFFFFFFFFFFFFFFFFFFF1F
:1001F000FFFFFFFFFFFFFFFFFFFFFFFFFFFFFFFF0F
:1002000010B5054C237833B9044B13B1044800E012
:1002100000BF0123237010BDF0000020000000008B
:100220007413010008B5034B1BB10349034800E0F8
:1002300000BF08BD00000000F4000020741301009E
:1002400070B57D4B82B0197821B97C4B9A681868DB
:10025000936998477A4B7B4C1A7823789A4201D05D
:1002600002B070BD01F0BAF9774B784A1B78137071
:10027000FBB9774A92F82410012907D1754882F812
:100280002430836874499B6B00689847734B744AA9
:100290001E689D6892ED000AAB69304698470023BE
:1002A0003046EA6901A9ADF80430ADF80630904750
:1002B00002E0012B00F09E806A4B9FED6B5AD3ED5C
:1002C000007AF7EE085A67EE857A67EEA57A674BF3
:1002D0006749684AD1ED006A1968674B92ED007A68
:1002E0001B88664A66489386664B90ED006AC3EDAC
:1002F000007A9960644B65491888D1F800E007EEF0
:10030000900A6349634DD1F800C06349634B098883
:1003100083ED236AD186A96BC3ED246A83ED257A28
:10032000C3F898E0C3F89CC0A3F8880081ED016A87
:10033000C1ED026A81ED037AC1F810E0C1F814C082
:10034000088082ED146AC2ED156A82ED167AC2F851
:100350005CE0A2F84C00C2F860C0E96B504DF8EECA
:10036000E75AD5ED006A4F4D4F4895ED007A4F4D55
:100370000068D5ED004A4E4D26EEA56AD5ED007A0F
:1003800008604C4887EE245AD0F800C067EEA57A82
:10039000C1F804C04849494809680568D96748490F
:1003A0009D660968474851620121474D00682D68E4
:1003B000D866C3F880504548454D00682D88C2ED89
:1003C0000B6A10641584434A43481568434A006821
:1003D000C2F80851424A83ED0E7A83ED0B5AC3ED01
:1003E000027A83ED036A9861117023784B40237081
:1003F00002B070BD164A92F8241039B9154882F837
:100400002430836814499B6B00689847134B9FED19
:10041000350A1E689D683046AB6998474FF4807274
:10042000314B30461988ADF80420ADF80610EB6961
:1004300001A9984740E700BFC4020020E006010080
:1004400067010020EC01002066010020C3020020AB
:100450006C0400205C070100DC020020A8060100FB
:10046000440100203C010020F304B53F500100206E
:10047000280100202C0100206E010020040400202F
:1004800034010020E40300206A0100203001002034
:1004900024010020140300206C010020B00400207F
:1004A0002001002038010020100100201801002048
:1004B0005C010020140100204801002058010020A8
:1004C0000C010020600100204C01002040010020B0
:1004D00068010020540100201C010020240A002093
:1004E000F0010020000000006401002038B5002465
:1004F0004A4A4B4B14701C7000F068FF002840F013
:100500008780484B4849B3F8882091ED005A07EEA0
:10051000902AD3ED034AF8EEE77ADFED446AD3ED93
:10052000242A93ED253AD3ED263A93ED274A404805
:1005300084EEA77A0280C5EE264A3E4A93ED065A1B
:10054000D06BD3ED1A6AD0ED005A90ED016A3A48AB
:100550003A4AC0ED002A3A48D3F86CE080ED003A00
:100560003848D3F88C50C0ED003A3748D2F840C034
:1005700080ED004A3548364CC0ED004A35482560CC
:1005800080ED005A3448DD6FC0ED005A3348D3F88F
:10059000804080ED006A3248C0ED006A3148C0F802
:1005A00000E03148C0F800C0304805603048314DA7
:1005B0000460314C314884ED007A93ED0E7AD3ED2E
:1005C0000B5A93ED026AD0F808410120C7EE256A64
:1005D00085ED007A86EE277A8968294BB2F836C015
:1005E0001960284B516A1870908E274B1880274B42
:1005F000108CA3F800C0264B264A18802648274BAB
:10060000C0ED006A264883ED007A0460116038BDB1
:100610002046BDE8384000F0DFBE00BFEC010020FE
:1006200067010020B0040020E4030020B6C30740A7
:100630006A01002014030020280100200404002087
:100640002C01002030010020240100203C0100206A
:10065000340100201C0100201001002014010020A2
:1006600058010020600100204001002048010020C6
:100670004C0100203801002020010020240A002025
:1006800050010020660100206E0100206C01002056
:10069000680100200C010020180100205C010020EE
:1006A0005401002038B5664A13780133DBB2042BBD
:1006B00013702AD8634C2378012B03D0BDE838404F
:1006C00001F02CB8604B61499A681868536A9847E2
:1006D0005F4B60499A681868D36A98475E4B5F49D8
:1006E0009A681868536B984700F06AFE5C4B1B7859
:1006F0002BB95C4B5C499A681868936B9847002348
:100700002370BDE8384001F009B8584B5849D3ED83
:100710000C5A91ED066A1D6956485C6A0560564898
:100720005D69046055489C6A05609FED557A55489F
:100730009D6904605448DC69056054481D6A046082
:100740005348D3F8F440056052489D68046052480D
:10075000DC6805605148DD6B046051481C6C056025
:1007600050485D6C04605048CC7905604F4866EE97
:10077000076AC0ED005A4E4825EE875A80ED006AA0
:100780004C48DFED4D7A04700C7A4C48CD6E047005
:100790004C794B4804704B484B4C90ED076A90EDF8
:1007A000037A2560494D4A4CAD6B84ED006A2D8873
:1007B000484C66EE275A84ED007A67EE277A07EEFA
:1007C000105A454DB8EE477A2D7ED0F810C006EE8F
:1007D000105AB8EE466A414C4569C4F800C0404C16
:1007E000D1F870C025603F4C3F4D84ED006A4C6FDE
:1007F0003E49C5F800C00C60DD6E3D491C6F0D60C0
:10080000C5EE074A3B49D3F884C00C6086EE875A90
:10081000D3F880400023384938480C603849394DB6
:10082000C1ED004A384C394984ED005AC5F800C082
:10083000C0ED007AC1ED005A137007F017FC39E7DC
:10084000F1010020F001002098070100940400202D
:10085000C4050100F8020020E0060100FC030020AE
:10086000C40200205C070100DC02002078050020A3
:10087000240A002084010020800100209001002033
:10088000EBC918418C010020940100209801002040
:100890009C010020E4010020E0010020E80100208C
:1008A000C4010020C8010020CC010020D801002094
:1008B000BC010020ED010020E02E6542EE01002089
:1008C000EF01002008080020A001002014030020F0
:1008D000B4010020AC010020E8080020A80100209D
:1008E000B801002088010020D4010020D0010020A0
:1008F00078010020700100207C010020A40100206C
:10090000DC01002074010020C0010020B0010020A3
:1009100010B5046882B06268136933B1012152696D
:10092000684600928DF80410984708F049FA62680A
:10093000136933B102215269684600928DF80410A0
:10094000984702B010BD00BF30B4EFF3108401230C
:1009500083F31088144B1A682AB94FF0400C134DDA
:100960002A7385F80CC01A6801321A6084F3108863
:10097000020A0F4C120152FA80F044F82010EFF3F3
:100980001082012181F31088196811B119680139A9
:1009900019601B681BB9802004490B73087382F32C
:1009A000108830BC704700BF900C002000FD014053
:1009B00000F801402DE9F041446882B0256F2E6AAD
:1009C000308C002867D100222B680092ADF80420FB
:1009D000002B00F09480DA682979186893696A46D8
:1009E00098472B68A979DA68186893690DF10202B3
:1009F00098472B68E979DA681868936901AA9847DB
:100A0000BDF80030256F07EE103ABDF80230B8EEA1
:100A1000477A07EE903ABDF80430F8EE677A06EEB2
:100A2000903AB8EE666AD6ED044AD6ED035A96EDD2
:100A3000055AD6ED023AC5EEA46A96ED064AC3EE13
:100A4000A45A37EE457A77EEC57A66EE866A27EEC7
:100A5000657A67EEE57A66EE846AAB6984ED027AC0
:100A6000C4ED047AC4ED056A33B101228DF800208B
:100A7000EA6968460192984708F072F9226F936913
:100A800033B103218DF80010D2696846019298476E
:100A900002B0BDE8F0816B69E16C5A68236D41F4E6
:100AA000803143F48033D2E90275D2F80480C4E97E
:100AB0001313FFF749FF708C216DFFF745FFB08CD2
:100AC000E16CFFF741FFF08C216DFFF73DFF308DAA
:100AD000E16CFFF739FF708D216DFFF735FF0221C3
:100AE000D8F8000006F0A0F80221386806F09CF85B
:100AF0002868022106F098F8256F2E6A63E79FEDBB
:100B0000036AF0EE467AB0EE467A8CE70000000009
:100B100008B51A4B1B78E3B1194B93ED000A194B3A
:100B20001B78E3B1184BD3ED000A184B1B78E3B1E7
:100B3000174B93ED001A174B1B78E3B1164BD3ED0F
:100B4000001A08F00BF807F0B9FF0022134B1A70D7
:100B500008BD0C4B9FED120A1B78002BE2D10B4B0A
:100B6000DFED0F0A1B78002BE2D10A4B9FED0C1A28
:100B70001B78002BE2D1DFED0A1AE2E75E020020CB
:100B80000C0200205C020020040200205D02002014
:100B9000080200205B020020000200205902002011
:100BA000000000002DE9F84F2DED108BDFEDBAFAB3
:100BB0009FEDBAFADFEDBA4A9FEDBAEAF6EE005AB7
:100BC000B94CBA4DDFEDBA6A256005259FEDB94AEB
:100BD000F3EE041AB84FDFEDB97AC7ED00FAB84F5B
:100BE0009FEDB85A87ED00FAB74F0020C7ED004AD5
:100BF000B64FB74B87ED00EAB64FB749C7ED005A7D
:100C0000B64F9FEDB77A3B60B64FDFF89CC43B60B0
:100C1000B54FDFEDB6BA3960B54FB64A3B60B64F57
:100C200010703D60B54FB64A3960B64F9FEDB6BA09
:100C3000C7ED006AB54F9FEDB62AC7F800C0B54FA3
:100C4000DFEDB52A87ED004AB44FF2EE0EAA3B6005
:100C5000B34FB1EE04AAC7ED001AB24FDFEDB29A5E
:100C6000C7ED006AB14F9FEDB29AC7F800C0B14F0F
:100C7000DFEDB18AC7ED007AB04F9FEDB18A87ED05
:100C8000005AB04F01203A60AF4FB3EE090A3A6004
:100C9000AE4F40263960AE4FB0EE003A87ED004AC5
:100CA000AC4F10253B60AC4F4FF07E5EC7ED007A35
:100CB000AA4FDFEDAB3A87ED007AAA4FDFEDAA0A23
:100CC000C7F800C0A94FDFF8E4B3C7ED00BAA84FDA
:100CD0009FEDA8CA3B60A84FDFF8D4A3C7ED007A08
:100CE000A64FDFEDA7CA87ED007AA64FDFF8C493C1
:100CF000C7F800C0A44F9FEDA5DAC7ED007AA44F56
:100D0000F7EE08DA87ED005AA24F9FEDA36A39602B
:100D1000A24FDFEDA3EA3960A24F4FF47A7887ED56
:100D2000004AA14FA14C3B60A14F9FEDA21A3A602F
:100D3000A14FC7ED004AA14F3960A149A14F81EDF4
:100D400000BAA14981ED002AA0490A60A049C1ED7D
:100D5000007AA049C1ED002A9F49C1ED00AA9F4930
:100D6000C1ED004A9E4981ED00AA9E49C1ED009A5D
:100D70009D4981ED007A9D49C1ED005A9C4981ED64
:100D8000009A9C4981ED005A9B49C1ED008A9B491C
:100D9000C1ED001A9A4981ED008A9A49C1F800B064
:100DA000994981ED002A9949C1ED002A98490870B6
:100DB0009849C1F800A09849C1F8009097490A6085
:100DC000974981ED000A97490E60974981ED003AF5
:100DD00096490D609649C1F800E09649C1ED003A88
:100DE0009549C1F800E09549C1ED000A9449C1F860
:100DF00000E09449C1ED007A9349C1F800E09349BD
:100E000081ED00CA9249C1F800E09249C1ED00CAE3
:100E1000914981ED00DA9149C1ED00DA904981ED07
:100E2000003A9049C1ED005AF5EE005A8E490B6028
:100E30008E49C1F800C08E49C1ED005AF4EE005A47
:100E40008C49C1ED005A8C4981ED006A8B4981EDD6
:100E5000006A8B4981ED006A8A490B608A4B8B4995
:100E600083ED007A8A4B1A604FF00202894BC3ED82
:100E700000EA894B1A80894B25881870884B628854
:100E8000C3ED006A874BA668C3ED003A08FB05F383
:100E9000B3FBF2F310E100BF9A99193F6666263F53
:100EA000CDCC4C3F9A99593FD80F00206F12833A0E
:100EB000CDCCCC3D00000042B80F002000007A44A9
:100EC000BC0F00203BDF7F3FC00F0020C40F00207D
:100ED00000002041DC0F002000004843D40F002018
:100EE000CDCC4C3DCC0F0020C80F0020000080432B
:100EF000D00F0020A410002074100020E40F002068
:100F00000000C842F40F002000007A46F80F0020CD
:100F10000000FA44E80F0020BD378635EC0F0020B2
:100F2000F00F0020101000209A99193E1810002090
:100F3000005043470010002000009643FC0F0020A3
:100F4000EC51783F14100020081000201C100020E5
:100F5000041000200C100020540F0020640F00200B
:100F60006666663F600F00200000C843580F0020EF
:100F70005C0F0020000048426C0F0020840F00200E
:100F80000000803C800F0020700F00200000004413
:100F9000680F00207C0F002000000043880F002015
:100FA00000000000740F0020780F00209003002044
:100FB000400F0020002474493C0F0020380F00200F
:100FC0004C0F002044100020480F0020440F002048
:100FD000500F0020340F0020280F0020040F0020A5
:100FE000140F00201C0F0020200F0020240F0020D1
:100FF000180F0020100F0020080F0020000F002005
:101000000C0F00202C0F0020300F0020FC0E0020C1
:10101000701000203810002024100020281000201C
:101020002C1000207C1000203410002078100020AC
:10103000401000203C10002030100020C80E00207E
:10104000CC0E0020D00E0020D40E0020B00F0020C7
:10105000B40F0020940F0020900F0020A80F002054
:101060009C0F0020A00F0020A40F0020980F00204C
:10107000C40E002020100020F80E0020DC0E0020FE
:10108000D80E0020AC0F0020E00F0020E403002069
:101090008C0F0020541000207210002071100020CE
:1010A000E40E0020E00E00209A99993E0000FA43D9
:1010B00052B87E3F00007A43A288034107EE102A0F
:1010C00005FB02F2F8EEC75A07EE102A254AF8EEA1
:1010D000C76A92ED0C5A07EE103A85EE276AC5EE04
:1010E000817AB8EEC77A0A684C681F4B3A601C6078
:1010F000CA681E4B1E491A601E4B81ED007AC3ED73
:10110000007A1D4B1D4993ED010A1D4B1D4C1E60BD
:101110001D4A1E4B81ED006A1A60C4ED006A1C492D
:101120001C4C1D4B02F500720C601A601B491C4CD4
:101130001C4B1D4A0C601A601C491D4C1D4B1E4A5D
:101140000C601A601D491E4B1E4C1F4A0C601A6031
:1011500007F06CFCBDEC108BBDE8F84F1B4807F0A6
:10116000F5BC00BF14030020E80E0020F40E0020A0
:101170004C100020F00E0020B0040020EC0E0020E7
:101180004810002050100020549416408010002079
:10119000841000205495164088100020581000201C
:1011A000751400005C100020811400006010002005
:1011B00091140000681000206914000064100020E1
:1011C0006C10002059140000E513000000000020FE
:1011D000F8B5644E3378042B7DD0634C634D2B8877
:1011E000032B74D0624F3B88FF2B6CD007F028FD97
:1011F000288004280DD8DFE800F0033C200C0F0005
:10120000002123785B4A012B118075D000225A4BB4
:101210001A7000232370F8BD584F3B78002B74D010
:101220002378032B0FD0052B6CD0012B64D0002327
:10123000514A2B8013703370EBE707F007FD2378DA
:101240003880032BE2D14E4B1B7863B900234D4904
:101250004D4A0B6013604D484D4D4E494E4A2B6030
:1012600003600B60136007F04DFC0122424B1A70C3
:10127000CFE72378022B6ED007F0EEFCDFED477A44
:10128000B4EEE70AF1EE10FA34DCDFED457AB4EEA5
:10129000E70AF1EE10FACCBF012300239FED417A5B
:1012A000F6EE087AB4EE470AF1EE10FAB4EE670AE9
:1012B000C8BF0323F1EE10FAC8BF04232D4A1380E0
:1012C00000232370F8BDFE2007F03CFC8EE723705E
:1012D00000F07CF986E7344B012093ED010A07F01A
:1012E000A5FB324807F032FC0122FF231E4C33706D
:1012F000227073E70223D1E7FFF70AFC01221E4B9D
:101300001A7086E700F0CCF883E707F0C7FC1D4BA6
:1013100083ED000A07F0C8FC1B4B83ED000A07F0C1
:10132000C9FC1A4B83ED000A07F0CAFC184B83ED89
:10133000000A07F0CBFC174B83ED000A07F0CCFC4A
:10134000154B1B4883ED000A07F0CCFC00F0A8F811
:1013500001233B7064E707F0B5FB0022064B1A70CF
:101360008AE700BF5A020020240200206402002005
:101370006002002062020020F201002059020020D9
:101380005802002020020020180200201C02002029
:101390001402002010020020FC0100200AD7233F85
:1013A000CDCC0C3FD7A3303FB0040020000000207C
:1013B00028020020014B1878704700BFF20100207E
:1013C0000122014B1A70704755020020014B18781A
:1013D000704700BF57020020014B1870704700BFD4
:1013E000570200201B4BF7EE007A9A8837EEC00AAE
:1013F00007EE102A1A6FDB88B8EEC77A77EEE00A9C
:1014000037EEC11A07EE903A20EE070AFAEEEF7AAD
:1014100060EE870A21EE071A30EE270A70EEA70A5F
:1014200071EE277ABCEEC00AFCEEE00AFCEEE77A29
:1014300000B5536987B09A6818686946CDED027A9D
:101440008DED000ACDED010A1369984707B05DF8EC
:1014500004FB00BF98060020024B9A6802601B69DB
:101460000B60704798060020014B93ED050A70470A
:1014700098060020014B186804F062BE6008010065
:10148000024B9A6818689368184700BFA8060100C5
:10149000024B9A681868D368184700BFA806010075
:1014A00070B586B001A807F039FC304BDFED304A4B
:1014B000D3ED0E7AB6EE007A67EEA47ADDED015A2E
:1014C000DFED2C2A67EE877ABDF808302A4A06EE4F
:1014D000903A92ED005A25EEA46A67EEA27A9FED4B
:1014E000272A274C27482849284A2568046808687D
:1014F0001168274AB8EE663AC2ED005A254A26EE30
:10150000026A1560244A254D1460254ADFED253A0C
:101510001060254A85ED006A1160244A9FED244A37
:10152000C2ED005AC7EE855A85EE836AC6EE237A6D
:10153000F7EE086A67EE847A67EEA66A27EE877A86
:101540001C4A1D4E1D483380137880ED005A1C4CF8
:101550001C481D4983F00103C4ED007AC0ED006A08
:1015600081ED007A137006B070BD00BF90030020BB
:1015700071C49C3F6666663F14020020CDCC4C3F90
:1015800020020020180200201C020020100200206F
:101590003C010020340100202801002038010020F7
:1015A0002C010020DB0FC940240100201C01002079
:1015B00000007042670100206A0100203001002015
:1015C000200100205001002044010020024B9A68B5
:1015D00018681369184700BFA80601003D4B1B7827
:1015E0005B0703D53C4B1B78012B00D0704710B52F
:1015F0003A490A78012A5DD039483A4A90ED107A82
:10160000D2ED1A7A384C3948C4ED007A80ED007A70
:101610000B70374B9FED376AD3ED006AF4EEC66A64
:10162000F1EE10FA38DD83ED006AF2EE045AF0EEC6
:10163000466AB7EE006AF1EE044A77EEC67A37EEF4
:10164000647A77EEA77A37EE257A67EEA67A9FED71
:10165000295A294BD16EDB6BD2F87CC0D2F88000BE
:10166000264A93ED004A1160254AD3F804E082ED42
:10167000007A87EE857A77EE067A224B224983ED4F
:10168000004A224BC1F800C0C3F800E02049214BBA
:101690000860C3ED007A10BD9FED1F5AF4EEC56AD5
:1016A000F1EE10FA0ED4B2EE045A26EE855AC5EECB
:1016B000065ABEE70C4A0D4BD2ED007A93ED007A44
:1016C000084AA6E7F0EE455A83ED005AF0EE456A67
:1016D000AFE700BF54020020300000205602002077
:1016E00004040020B0040020F8010020F4010020D0
:1016F0002C0000200000C8421403002060010020DC
:1017000040010020100100204801002014010020A9
:101710004C010020580100200000000008B5FFF730
:1017200055FE012800D008BD044B9A68186813695B
:101730009847BDE808400220FFF74EBEA80601000A
:1017400010B5B8B1012831D0022821D0002240F6CE
:101750000151184804F094FD002240F6025115484A
:1017600004F08EFDBDE81040002240F60351114800
:1017700004F086BD012240F601510E4804F080FDC0
:10178000BDE81040012240F602510A4804F078BD3D
:10179000012240F60151074804F072FDBDE81040F7
:1017A000002240F60251034804F06ABD40F60151A0
:1017B0000022E2E7500500202DE9F04F4FF0120B18
:1017C0004FF0320A4FF0080999B09E4F06AC0FCF88
:1017D0000FC43B689C4E24F8023B0BAD1B0C2370DE
:1017E0000FCE0FC50FCE0FC50FCE0FC5974B0DF106
:1017F0000C0883F800B0964B964C83F800A0964BEB
:101800004FF0420C83F8009033680DF1180E25F864
:10181000023B1B0C2B70914B04EB0B0793E807006A
:10182000A8E8030088F8002001E01EF801CF04F8C2
:1018300001CFBC42F9D18A4B49210BAA03F13200F6
:1018400001E012F8011F03F8011F8342F9D1854B13
:101850004D220DF10D0103F1080001E011F8012BFB
:1018600003F8012F8342F9D144F2C1154FF4C0624D
:1018700008247D4B7D48D3E900719E687C4B048031
:101880001D807C4B38461A80336801970096984734
:10189000794BDFF84482D3E9000104F0E5FBDFF87F
:1018A0003CE24446F4464FF0000A744B744ED3F8C1
:1018B000C470744BDFF828B29D6E0FCFACE80F00F8
:1018C0003F68DFF820920FCF0FC66C4BA6F11002D5
:1018D00097E80300CEF81020C3F8C4E086E80300C0
:1018E0000FCD0FC495E8070084E80700A022D8F8C0
:1018F000181058460DF0AEFC634BC8F818B09A6843
:1019000002A91868ADF808A05369ADF80AA0984775
:101910005E4BDFF8D4B1D3F8DC30682293E80300E3
:101920005B4B5C4F1C4683E8030048460DF092FC7D
:10193000C4F80490D9463C46574B584ED3F86480BF
:10194000DFF8A8E1B8E80F00A9E80F00D8F8009088
:10195000DFF89CC1B9E80F000FC4B9E80F000FC44D
:10196000B9E80F000FC44E4B4E4DD3F8388199E8BB
:101970000F0084E80F00BC6B0FCC0FC6FB6B94E824
:10198000030086E8030093E80300474BA6F110022A
:10199000C7E90E2383E80300CBF8107098E8030032
:1019A0000E46DEF808308CE803009C6B0FCE0FC5A6
:1019B000A5F11003CCF804300FCE0FC596E8030054
:1019C00085E803006146DEF80000A047374B384C3D
:1019D0001D6F0FCD0FC40FCD0FC429685422354899
:1019E00021600DF037FC334AA4F120031A624FF452
:1019F0007A62314B83F800A0304B1A804FF001021D
:101A00002F4B83F800A02F4B83F800A02E4B1A70A9
:101A10002E4B1A702E4B83F800A02E4B83F800A09B
:101A2000FEF764FDFEF70CFC01221321902006F066
:101A300073FCDDE900603369984719B0BDE8F04FE9
:101A4000FFF7B0B82C03010040030100C2020020E0
:101A5000A2020020AF020020AC02002074030100AB
:101A60006F020020A3020020A8060100CC02002083
:101A7000CE020020D00200206008010040070020B4
:101A8000E4030020240A0020980701000808002031
:101A9000FC030020140300207805002054030020DC
:101AA000E80800206C0400200C03002098060020A9
:101AB0006C03002090030020C5020020D202002009
:101AC000C9020020C4020020C6020020C302002078
:101AD000670200206602002094040020E402002037
:101AE000B004002004040020F80200205C0701007C
:101AF000DC0200202DE9F047A34CA44E2278337875
:101B000082B09A4263D02370002B5BD1A04DDFF8E6
:101B1000DC922B7889F80030DFF8D4A2FEF790FB36
:101B20009AF8003099F80020934204D0032B40F239
:101B300018818AF80020974B9F68D3F800803B6A91
:101B400040469349984799F80030032B2B7800F0D2
:101B5000FD80012B04D1904B1B78012B00F0838179
:101B6000012240F603518D4804F08AFB2878FFF7E4
:101B7000E7FDFFF72DFBFFF71DFC894C80B22388A2
:101B8000884D834228801FD0012800F03581864B84
:101B90001A68864BD16810688E6AA3F1780284496E
:101BA000B047844B9A68844B916810688E6A834A68
:101BB0008349B0474046FB6898472B88238002B092
:101BC000BDE8F087012B0AD002B0BDE8F087012AFA
:101BD00005D0002AF8D1DFF814926D4D9CE76D4BCB
:101BE0006B4D1F689E6829463846336A98472C78A3
:101BF000012C00F09580022C77D0002C66D0DFF805
:101C0000988198F8004074B1012C00F048810122BD
:101C100040F60351614804F033FB2878FFF790FD4C
:101C200002B0BDE8F087674B9FED677A1B88DFED58
:101C3000677A00EE103AB8EE400A30EE470A20EE1E
:101C4000270ADFF8B091B36989ED000A3846984752
:101C5000ADF804403846F369ADF8064001A998474D
:101C6000D9ED007A9FED5A7AF4EEC77AF1EE10FAC8
:101C700007DD9FED587AF4EEC77AF1EE10FA00F125
:101C8000CF800022544B1A702B78012BBFD198F8CB
:101C90000030012BBBD1514B514AD98E92ED047AC1
:101CA00007EE901AD3ED0F6AF8EEE77AB0EEC77A36
:101CB00067EEA67AB4EEE77AF1EE10FAA7D8002222
:101CC00040F60351354804F0DBFAA6E740F604512C
:101CD000324801AA04F0AAFA9DF80430012B00F062
:101CE000AC8000223F4B1A7089E740F6075101AAE9
:101CF0002A4804F09BFA3C4A9DF804101378012B03
:101D000000F0A480002B7FF47AAF0129E9D1354C93
:101D100020780130C0B20A2800F2498120706EE7B5
:101D200001AA40F604511D4804F080FA9DF80420F1
:101D3000002A79D000222B4B1A70274B1B78002BDE
:101D40003FF45DAF3846F368984758E7002B00F042
:101D5000E280022B7FF4FDAE89F800308AF8003073
:101D6000FEE6012B89F8003000F0F280032B00F032
:101D7000E780002B7FF4DFAE064BD3F800809F682E
:101D80004046FB689847DAE6C90200206702002057
:101D9000C5020020A8060100C30200205005002053
:101DA000D6020020D40200206C030020100700207F
:101DB0001155000094040020880B002098070100B2
:101DC000012C0000D802002000E0FF44032800C0DE
:101DD000000048C300004843C7020020040400205C
:101DE00008080020C8020020C6020020C40200200B
:101DF0006602002068020020704A714B1168A3F14E
:101E00007802CE680868B66A6E49B0476E4A6F4B72
:101E100091686F4A8E680868B66A6E49B047CCE62A
:101E200001226D4B1A702FE76C490B780133DBB23E
:101E30000A2B00F29F800B707FE7684A137801330A
:101E4000DBB20A2B00F298801370D8E600297FF4E9
:101E500048AF624803780133DBB20A2B92BF0370AC
:101E600001701170CBE65E4B5E4AD3ED0F6ADB8EDC
:101E700092ED047A07EE903AF8EEE77AB0EEC77A80
:101E800067EEA67AB4EEE77AF1EE10FA3FF668AEA6
:101E9000002240F60351544804F0F2F966E6534B31
:101EA00093F824203AB983F82440514B51499A6859
:101EB0001868936B9847504B9FED507A1B889FEDA5
:101EC000506A07EE903AF8EE677A77EE677ADFEDC0
:101ED0004D6A67EE867AF4EEE67AF1EE10FA4A4C35
:101EE000C4ED007A3CDDC4ED006AB3699FED470A9A
:101EF00038469847D4ED007AFDEEE77A40F20113B8
:101F000017EE902AADF80430F369384601A9ADF810
:101F100006209847B8E6237089F8003033708AF8B5
:101F2000003001234FF47A60394A3A4913703A4A33
:101F300008801370FEF7DAFAFEF782F92B7808E6CC
:101F4000364BD3F800809F6840463B699847F6E5DA
:101F5000324BD3F800809F684046BB689847EEE557
:101F60009FED2F7AF4EEC77AF1EE10FA0ED584EDDC
:101F7000007ABAE70A70E5E6174B14701B78012B5C
:101F80003FF43DAE3846B368984738E6B0EE007A85
:101F9000F4EEC77AF1EE10FAA7D8B8EE007AF4EEB4
:101FA000C77AF1EE10FAA4BF002323609DE72370E7
:101FB000384633691170984721E600BF6C03002052
:101FC00010070020B509000094040020880B0020B1
:101FD0009807010011090000C7020020C802002074
:101FE0000404002008080020500500206C04002094
:101FF0005C070100DC020020D802002000E0FF4462
:1020000021F4BD3D000034436C02002000000000BC
:10201000C3020020D2020020C6020020A806010050
:10202000000034C310B50446FFF7C4F980B974B199
:102030000A4B186804F084F8094B01219A68186863
:1020400053699847074A138843F00103138010BD72
:102050000120BDE8104006F075BD00BF600801001A
:10206000A8060100CA0200200379032B04D0042B28
:102070001DD0022B0AD070470E4B1B78022BFAD0D2
:102080000D4B0E499A681868136B184700B50C4B36
:1020900083B0DA680821186893690DF10602984741
:1020A000BDF80620074B1A8003B05DF804FBFEF76D
:1020B000F9BA00BFC5020020A8060100CA0200202C
:1020C0008C030100D802002008B5FFF775FBFFF76D
:1020D00011FDFCE7022800D07047024B0248596806
:1020E00004F0AEB9800301005005002008B5FFF7E9
:1020F000EBFF002008BD00BF0346012200201A713B
:10210000704700BF0346D3ED057A27EE800A002012
:1021100083ED070A704700BF08B503460868D3F887
:102120007021C3F860012AB19068B3F96211436964
:1021300010689847002008BD38B5D0F870310446C3
:102140000D462BB19A6891ED040A12691868904700
:10215000AE4604F1800CBEE80F00ACE80F00BEE80C
:102160000F00ACE80F009EE80F008CE80F00002085
:1021700038BD00BF03460022D3F80CC000B5D3F829
:1021800010E0C1F800C0C1F804E0D3F818C0D3F8DB
:1021900038E00A74C1F80CE0C1F808C01B7A104698
:1021A000012B08BF1A460A745DF804FB2DE9F04FB5
:1021B0004FF000088D692DED028BA0F8048080F8A7
:1021C000A08080F8078080F80880B5F8883080F813
:1021D000258007EE903A95ED067A9FED608ADFED57
:1021E000608AF8EE677A0446002667EE887A27EE62
:1021F000287A05F1880A05F1680B95ED010A8166D8
:1022000000F16C0283B0C6608661C0F88C60066223
:102210000F4650465946C4ED057A84ED1F7A0CF0FE
:1022200057FD95ED1E7AD5ED047ADFED4E5A95ED0A
:10223000016A27EE257A67EEA57A27EE067A67EE21
:10224000867AF0EE006A77EE265A37EEA66A36EE08
:10225000C74A76EEE76A95ED060AC7EE254A87EE8D
:10226000865A84ED337AC4ED2E7A84EE257AC6EE52
:10227000867A5146F7EE000AC4ED354A84ED305AAD
:1022800084ED347AC4ED2F7A20EE280A04F1480058
:10229000C4F8C460C4F8C860C4F8B060C4F8B460DE
:1022A0000CF0B2FC05F14C0984F8448095ED070A66
:1022B00048460CF031FED5ED0F2A95ED013A95ED2B
:1022C0000E2AD5ED1C1A95ED1D1AD5ED270A95EDB0
:1022D000260A484662EE882AB5F888100CF026FED9
:1022E00095F82730012B1ED0BB684BB1D3E9011202
:1022F000186812689047BB689A68186853689847CE
:10230000FB6833B1D3E9011218681268C4F8703160
:1023100090470020144B84F82400236003B0BDECE8
:10232000028BBDE8F08F95F828305BB904F1D80036
:1023300001900CF0F9FC95ED010A594601980CF05A
:1023400017FDD1E795ED271AD5ED010A95ED080A9D
:1023500004F59A700CF0A0FAC6E700BF5077D63D9E
:10236000D7B3DD3FDB0FC9404350534D2DE9F0415A
:102370008C692DED028BB4F8883094ED067A07EE67
:10238000903A9FED4D8ADFED4D8AF8EE677A05466B
:1023900027EE287A67EE887A04F1880704F1680846
:1023A000816600F16C0294ED010A4146384685EDE4
:1023B0001F7AC5ED057A0CF08BFC94ED1E7AD4EDF6
:1023C000047ADFED3F5A94ED016A27EE257A67EE35
:1023D000A57A27EE067A67EE867AF0EE006A77EE47
:1023E000265A37EEA66A36EEC74A76EEE76A94EDCD
:1023F000060AC7EE254A87EE865A85ED337AC5ED83
:102400002E7A84EE257AC6EE867A3946F7EE000AF1
:10241000C5ED354A85ED305A85ED347AC5ED2F7A14
:1024200020EE280A05F148000CF0EEFB002304F131
:102430004C0685F84430304694ED070A0CF06CFDEC
:10244000D4ED0F2A94ED013A94ED0E2AD4ED1C1A26
:1024500094ED1D1AD4ED270A94ED260A304662EE5B
:10246000882AB4F888100CF061FD94F82730012B0D
:1024700004D0BDEC028B0020BDE8F08194F8283038
:102480005BB905F1D80094ED010A41460CF070FCEF
:10249000BDEC028B0020BDE8F08105F59A7094ED4B
:1024A000271AD4ED010A94ED080A0CF0F5F9BDECF9
:1024B000028B0020BDE8F0815077D63DD7B3DD3FD9
:1024C000DB0FC94038B50023856E0446AA69037145
:1024D00080F8243092F82730012B0ED0AB681BB166
:1024E0009A681868D36A9847EB681BB19A681868AD
:1024F000536898470020206038BD92F828301BB9F7
:10250000D8300CF027FCE9E700F59A700CF0FAF9E6
:10251000E4E700BF38B5002204460023816E48304E
:102520008D69E360A361C4F88C302362C4F8C430C1
:10253000C4F8C830C4F8B030C4F8B430A28084F80D
:10254000A020E271227284F844200CF01FFA05F1F9
:102550004C000CF0E7FC95F82730012B11D0D4F893
:10256000703153B19A68186893689847D4F87031FD
:1025700000219A68186893699847002084F824001D
:1025800038BD95F8283023B904F1D8000CF0E2FBEF
:10259000E5E704F59A700CF0B5F9E0E770B52DEDBC
:1025A000028B9FED3A0A90F8A13082B0032B8DED9B
:1025B000010A03D002B0BDEC028B70BD836E0446ED
:1025C0009D69D0F8706195F82730012B1CD090EDF3
:1025D000230A2B78012B24D0022B09D09DED010A70
:1025E000D5ED060A0CF0F8FC02B0BDEC028B70BD14
:1025F000002EF3D0B368F0EE400A1B6A94ED060A91
:10260000306801A99847E9E795F8283043BBD0ED39
:10261000230A90ED040A05F18801D8300CF00CFC77
:10262000D7E7D4ED067A94ED1D7A37EEC00AD4EDE3
:102630001E6A94ED1C8A20EE077A84ED1B0A20EEB8
:10264000088AD4ED1F0A37EE260A0CF0C5FCF0EE1E
:10265000407A38EE000AC4ED1E7A8DED010ABFE71C
:10266000B5F8883095ED267A07EE903AF8EE677A5D
:1026700090ED040A67EE877AD0ED230A27EE800AF0
:1026800000F59A700CF044F9A3E700BF00000000C9
:10269000F0B52DED028B0023826E87B09569CDE9F0
:1026A000023395F884300446012BD0F8706122D0B3
:1026B000032B0CD0DFEDB17AB0EE677A002084ED09
:1026C000037AC4ED047A07B0BDEC028BF0BD90F83C
:1026D000A0100129EED190F82430002B40F0838027
:1026E00084F8241095F82530012B13D09DED027A43
:1026F000DDED037AE2E790F8A0100129DAD190F835
:1027000024303BBB90F8A230012B00F08C80002BD2
:10271000E8D1E5E794F84430012BE7D104F1480013
:1027200094ED220A01900CF0BBFA94ED230AB5EE69
:10273000C00AF1EE10FA019800F3BD8100F1BB81EF
:102740009DED027AB5EEC07AF1EE10FAC8BF9FEDAA
:102750008B7ACDE790F86021012A5BD0022B00F044
:102760009781002E00F04B81B3683068DB69984791
:10277000A36ED4F870619F699FED800A63798DED37
:10278000040A012B00F06981022B00F04981002B23
:1027900000F07281DFED787AD7ED030A60EEA70AC8
:1027A0000CF01AFC204684ED060AFFF7F7FEA26E35
:1027B0008DED030A936993F82510012900F0F38049
:1027C000E179002900F0F680012900F01A819FEDDF
:1027D0006B8A94F8A130032B8DED028A82D10223FB
:1027E00084F824307EE7022B00F05981002E00F09F
:1027F0006081B3683068DB699847A36ED4F8706174
:102800009F69002304936379032B63D8DFE803F007
:102810005A82651A002E00F0F280B36802219B698B
:1028200030689847A0E71369002B3FF45BAF0321A2
:102830008DF81410526904A804929847022384F872
:1028400024304FE794ED2A0AD4ED057A20EE270ACA
:1028500094F8A1308DED040A032B00F05581DFEDD3
:10286000467AD7ED030A60EEA70A0CF0B5FB2046C6
:1028700084ED060AFFF792FEA26E8DED030A9669BB
:1028800096F82510012904BF002384F84430E37929
:10289000052B12D8DFE803F07463110303501369AA
:1028A00043B103218DF81410526904A8049298478B
:1028B00096F82510012900F078819FED308A94F870
:1028C000A13088E794F8A130042B00F02C81032B71
:1028D00000F050819FED290AC1E794ED060A94EDBE
:1028E000077AD7ED027A37EE407ADFED236A67EE9A
:1028F000A67AF0EEC76AC7FEE67A17EE103AF0EE57
:10290000E77A002BB8BFF1EE677A30EE270A8DED3B
:10291000040AA4E73B78012B00F01681022B00F09B
:10292000328194F8603123B994F8A130032B00F080
:1029300051819DED040A92E794F8A13094ED2B8A21
:10294000032B00F0E8801369002B00F02B8103219A
:102950008DF81410526904A80492984739E794F846
:10296000A330012B00F0E48094ED038A1369002B5F
:102970003FF42FAF0421EBE75077D63D0000000075
:10298000D4ED037A96ED0B7A96ED0E8A77EE877A80
:10299000F4EEC87AF1EE10FA80F2A380B0EE678A06
:1029A00094F8A13017E7002084F84400E07901286A
:1029B00027D012D894ED038A93ED0B7AD3ED0E7ADB
:1029C00038EE078AB4EEE78AF1EE10FAFFF601AFAF
:1029D0000123B0EE678AE371FBE6033801283FF676
:1029E000F6AE84F8441004F148000CF06BF90128AD
:1029F0000CBF042303231FED1F8AE371E9E62F4672
:102A0000BAE694F8A330012BAED194F8A130022B92
:102A100000F09580032B1FED278AA7D1E371A5E76E
:102A200094ED060A94ED077AD7ED027A37EE407AF4
:102A30005FED2F6A67EEA67AF0EEC76AC7FEE67A08
:102A400017EE103AF0EEE77A002BB8BFF1EE677A96
:102A500030EE270A8DED040A9CE63B78012B30D03E
:102A6000022B43D094F860311BB994F8A130032BAA
:102A700073D09DED040A8DE694F8A130032B7FF40A
:102A800089AE94F86131002B6FD10223637181E626
:102A9000002EB4D0B36830689B69984764E690F81C
:102AA0006021012A15D026B1B36830689B69984728
:102AB0009FE62F46A5E602AA04F180010BF070FF05
:102AC0003EE6002ECED0B36830685B6A04A9984712
:102AD000C8E7002EEDD01946B36830689B69984767
:102AE00087E6012294F8A130E27174E6002EB9D095
:102AF00097ED030A5FED607AB36820EE270A9B6AC0
:102B0000306804A99847ADE794F86131002B5CD197
:102B100002236371A3E6E3711369002B7FF417AFFF
:102B20008DED028A5BE603231FED6C0A637196E666
:102B300094F8A130042B5DD0022B7FF46BAF0023FF
:102B40001FED728AE37111E7002E3FF4EAAEB3681D
:102B500030685B6A04A99847E3E6002E89D0B36821
:102B60003068DB6A04A9984783E7012B7FF412AE33
:102B700063710FE694F86131002B34D102231FED0D
:102B8000810A63716BE6002E3FF4CBAE97ED030A2A
:102B90005FED877AB36820EE270A9B6A306804A944
:102BA0009847BEE68DED028A9CE584F8441004F156
:102BB00048000CF087F801280CBF042203221FED07
:102BC000918A94F8A130E27105E6012B7FF447AEBB
:102BD000637144E6002E3FF4ACAEB3683068DB6A44
:102BE00004A99847A5E6012B1FED9C0A7FF437AE98
:102BF000637134E605231FED9F8AE371B6E600BFDB
:102C000030B5046883B0D4E900531A693AB10121A0
:102C10005B69684600938DF80410904763681968F3
:102C200019B1A36820689B6998472B79012B03D1C0
:102C3000A3682068DB6998476368596821B1A36875
:102C400020681B6A984763681A6932B102215B6980
:102C5000684600938DF80410904703B030BD00BF64
:102C600010B4034600214FF48074002283F835111C
:102C700059759975DC6183F8221008465DF8044B9C
:102C80001984C3F8F820C3F80821C3F8FC20C3F85E
:102C90000C21C3F80021C3F81021C3F80421C3F8A4
:102CA00014217047844600B5DCF804E00020C1F828
:102CB00000E0DCF8FC101160DCF8F8201A605DF828
:102CC00004FB00BF06207047D0F83821437F5268CC
:102CD0000B7090F822304B70437D012B06D0002200
:102CE000002300204A608A608B7070479069D26927
:102CF00048608A6000208B70704700BF0346D1F89F
:102D000000C04A680020C3F80CC01A61704700BFB9
:102D1000062070470620704706207047437F5A1EE2
:102D2000012A01D900207047D0F83811028C496877
:102D3000B1F820C094450ED8012B18D0012380F89B
:102D4000223091F825206AB1027D022A0AD004229D
:102D500043754277E6E700230132028480F822308F
:102D6000002070470322022342770375DAE700212F
:102D7000022280F8223001844277D3E790F835317F
:102D8000022B03D0437F033B012B01D90020704766
:102D9000037D022B06D0002BF8D140F20113838271
:102DA00000207047D0ED027A90ED037AD0ED046AEE
:102DB000D0F8383127EE877A5B6867EEA67A93F809
:102DC0002520012A1FD0D3ED046AB6EE006A66EE14
:102DD000866A77EEE67A37EE667A244B83ED067ADA
:102DE000C3ED077AD3ED077A9FED217AF4EEC77A27
:102DF000F1EE10FA2FDB77EEC77AC0ED3B7A0223B3
:102E000080F83531C2E7D0ED373A90ED384AD0ED51
:102E10003A6AD0ED394A37EE637A77EEC47A27EE14
:102E2000247A67EEA67A90ED3C5AD0ED3D5A77EEC3
:102E3000276A77EEC77A26EE857A67EEA57A0B4B7E
:102E40009FED0C6A83ED067AC3ED077AD3ED077A1E
:102E500077EE867AC8E7F5EEC07AF1EE10FA48BF51
:102E600077EE877AC0ED3B7AC9E700BF00100240D9
:102E7000DB0FC940DB0F493F10B52DED028B027D02
:102E80000446022A18D0D0F8381190F83531496834
:102E9000002B64D1012A00F0DC800022637FC4F89B
:102EA000FC20012B00F088809FEDD90ABDEC028B3D
:102EB000002084ED010A10BDD0ED027A90ED037A76
:102EC000D0ED046AD0F8383127EE877A596867EE7A
:102ED000A67A91F82530012B76D0D1ED046AB6EEB2
:102EE000006A66EE866A77EEE67A37EE667AC94B56
:102EF00083ED067AC3ED077AD3ED077AD4ED3B6A0A
:102F00009FEDCA7A77EEE67AF4EEC77AF1EE10FA20
:102F1000C0F2C38077EEC77A94ED0A7ADFEDBE6A1D
:102F200037EE677AB4EEE67AF1EE10FAC0F2A980D5
:102F3000A38C0133A38494F83431C4ED0A7A002BB6
:102F400000F08480012B75D00B78227F934200F033
:102F5000AC800132227794F83531002B9DD0022BC2
:102F6000A2D191F82330D4ED4C7A00EE103AB8EEAD
:102F7000C00A94ED3F7A67EE806A94ED3E6A27EED0
:102F8000267A67EE867ADFEDA90AC4ED3E7A20EE56
:102F9000270A84ED3F7A0CF0DDFADFEDA47AB4EE77
:102FA000E70AF1EE10FA37DBBDEC028B30EE670A70
:102FB000002084ED010A10BD9FED980ABDEC028B44
:102FC000002084ED010A10BDD0ED373A90ED384A6B
:102FD000D0ED3A6AD0ED394A37EE637A77EEC47AAB
:102FE00027EE247A67EEA67A90ED3C5AD0ED3D5A52
:102FF00077EE276A77EEC77A26EE857A67EEA57AAE
:10300000844B9FED876A83ED067AC3ED077AD3ED93
:10301000077A77EE867A71E7B5EEC00AF1EE10FA1C
:103020007FF544AFBDEC028B30EE270A002084ED23
:10303000010A10BDB4F92430DFED7C6A07EE103AC6
:10304000B8EEC77A27EE267A77EE277AC4ED3E7A75
:103050007AE7C37D012B63D0022B00F00081002BA7
:1030600000F0FA80637D012B7FF41EAF94ED480AD7
:1030700094ED477AD4ED017A20EE070A30EE270A64
:103080008BE7DFED686AB4EEE67AF1EE10FA3FF610
:1030900052AFA38C013BA3844DE7F5EEC07AF1EE6D
:1030A00010FA48BF77EE877A36E794ED3E7AD4ED92
:1030B000426A77EE666A9FED586AF0EEE67AF4EEC1
:1030C000C67AF1EE10FA0DDD9FED586AF1EE666AF0
:1030D00077EEC67A16EE902AF0EEE76A002AB8BFBD
:1030E000F1EE666A013307EE903A94ED475AF8EE36
:1030F000E77A67EE857AD1ED035A94ED436A84ED61
:10310000427A86EEA77A77EE467A67EEA57A0023B2
:1031100077EE867A2377C4ED3F7AC4ED437A1AE7D7
:10312000037E5A1E052A00F24783DFE802F02727B4
:1031300003890381032B00F0C181052B1BD194ED82
:10314000337A94ED345AD4ED357AD4ED365AB6EE5E
:10315000006A37EE457A77EEE57AF7EE006A27EEF9
:10316000067A67EE867A86EE876A86EEA77A84ED1F
:103170003C6A84ED3D7A0133237673E7B4F81EC0D0
:10318000B4F824219445C0F029810022012BE28368
:10319000A2752277D4ED4A6A94ED1E7AD4ED327A84
:1031A000E26ED4F868C0216FD4F874E000F0E581D5
:1031B00027EE267A67EEA67A84ED187AC4ED2C7A8B
:1031C000C4F830C0E263D4F8B8C0A164C4F88C205D
:1031D000D4F8C010D4F8C420C4F854E0C4F880C0B7
:1031E000C4F89810C4F8A420002201332376A26604
:1031F000E26622676267A267C4F8B820C4F8BC2000
:10320000C4F8C020C4F8C420C4F8C8202AE700BF0E
:103210000000000000100240DB0F4940DB0FC93FF7
:10322000DB0F493FDB0F49C000000000DB0FC94046
:10323000002302221FED040A6375E275237635E64A
:10324000E28BB4F824319A4257D300230522E3835A
:10325000A3752377227605E7C275027602E7D0EDE3
:103260000B7A90ED0C6A90ED117AD0ED126A77EE40
:10327000C67A37EE667AF0EEE77AB0EEC77AFCEE01
:10328000E77ABCEEC77A17EE903A17EE102AD0ED27
:103290001F7A90ED207A77EEC77AF0EEE77AFCEEAF
:1032A000E77A9BB292B29342438390ED267A3CBF79
:1032B0001346428317EE902AD0ED257A77EEC77A2F
:1032C000F0EEE77AFCEEE77A92B29A4284BF1346B8
:1032D000428317EE902A92B29A4284BF13464283E9
:1032E0000A899A4206D902220323027543770323EF
:1032F000E375B7E603230375F9E7A37D002B40F0E0
:10330000D380D4ED026AD4ED038A94ED048A91ED62
:10331000046AF6EE007A28EEA65A26EE276A68EED0
:10332000266A35EE465A76EEC66A03F1804303F507
:10333000043383ED065AC3ED076A5FED445AD3EDBB
:10334000076AF4EEE56AF1EE10FAC0F2488176EE13
:10335000E56AC4ED406A0B78227F94ED400A9342FF
:1033600000F0B3810132227791F823305FED510AEA
:1033700006EE903AF8EEE66A26EE800A0CF0EAF8DD
:10338000D4ED027A94ED375A28EEA77AD4ED385A64
:1033900068EE277AD4ED3A6A94ED396A37EE457AC9
:1033A00077EEE57A27EE067A67EEA67AE38B77EE7C
:1033B000276A84ED400A77EEC77A002B40F0FA8046
:1033C000C4ED336AC4ED346AC4ED357AC4ED367A9F
:1033D000A27D01330132A275E38343E6A37D002B76
:1033E00062D1D4ED027AD4ED038A94ED048A91ED92
:1033F000047AF6EE005A28EEA76A27EE257A68EEE0
:10340000277A36EE476A77EEC77A03F1804303F5F1
:10341000043383ED066AC3ED077A5FED7C6AD3ED72
:10342000077AF4EEE67AF1EE10FAC0F2078177EE51
:10343000E67AC4ED407A0B78227F94ED400A9342FD
:1034400000F006810132227791F823305FED890A7E
:1034500007EE903AF8EEE77A27EE800A0CF07AF859
:10346000D4ED1E6A94ED327A76EEA86A37EE087AC9
:10347000E38B84ED400A07EE903AC4ED1E6A84EDBA
:10348000327A002B40F0B580C4ED1A8AC4ED1C8A54
:1034900084ED2E8A84ED308A17EE903AA27D0133B6
:1034A0000132A275E383DDE50133DBB2A3754A780F
:1034B0009A427FF4D7AD0023A375D3E5D4ED123A39
:1034C000D4ED0B7A94ED0C1AD4ED114A94ED1F7AD9
:1034D000D4ED201A94ED255A94ED262AF6EE006AD2
:1034E00074EEA34A77EE817A37EE217A35EE025AEE
:1034F00067EEA67A25EE265A64EEA64A27EE267ACD
:10350000D4ED175AD4ED182A94ED2B6A94ED2C3A89
:10351000C4ED0D7A84ED217A77EEE47A37EE457AC0
:1035200094ED024A67EEA67A27EE267A75EEA25A45
:1035300036EE036A65EEA65A26EE266AF7EE003AE4
:1035400064EE277A24EE077AC3EEA76A84ED275A41
:10355000C4ED195A25EE845AC3EE877A66EE045AF2
:10356000C4ED134A84ED2D6A84ED375AC4ED385A00
:10357000C4ED396AC4ED3A7AFDE527EE267A67EEA6
:10358000A67AC4F82CC0A263D4F8B8C06164C4F8A9
:103590008820D4F8C010D4F8C42084ED177AC4ED84
:1035A0002B7AC4F850E0C4F87CC0C4F89410C4F876
:1035B000A02019E694ED337AF4EEC76AF1EE10FA22
:1035C00040F3CA80C4ED336A94ED357AF4EEC77ADD
:1035D000F1EE10FA40F3B680C4ED357AF8E6F5EE78
:1035E000C06AF1EE10FA48BF76EEA56AC4ED406AF3
:1035F000B1E694ED1A7AF4EEC78AF1EE10FA40F3D0
:10360000C880B8EEE77AD4ED4B6A27EE267AC4ED8F
:103610001A8A84ED1B7A94ED2E7AB4EEC78AF1EE05
:1036200010FA40F3A380B8EEE77AD4ED4B6A27EEA8
:10363000267A84ED2E8A84ED2F7A2DE7F5EEC07A76
:10364000F1EE10FA48BF77EEA67AC4ED407AF2E6C2
:10365000D4ED446A70EE666A9FED597AF0EEE67A30
:10366000F4EEC77AF1EE10FA0DDD9FED567A77EEA3
:10367000C77A16EE902AF0EEE77A002AB8BFF1EE8C
:10368000677AF0EE676A013307EE903A94ED477A75
:10369000F8EEE77A67EE877A86EEA77AB4EE477A95
:1036A0009FED495AF1EE10FA94ED456A15FE077A3E
:1036B000D1ED035A37EE467A002307EE256A84EDF2
:1036C000440A84ED416A2377BEE6D4ED445A70EE95
:1036D000655ADFED3B7AF0EEE56AF4EEE76AF1EE6B
:1036E00010FA0DDDDFED377A76EEE76A15EE902AF7
:1036F000F0EEE66A002AB8BFF1EE666AF0EE665AAE
:10370000013306EE903A94ED476AF8EEE66A66EE0B
:10371000866A85EEA66AB4EE466A9FED2B7AF1EED4
:1037200010FA94ED455A17FE066AD1ED037A36EE8B
:10373000456A002306EE275A84ED440A84ED415A77
:10374000237711E694ED367AF4EEC77AF1EE10FAAB
:1037500048BFC4ED367A3BE694ED347AF4EEC76A9E
:10376000F1EE10FA48BFC4ED346A2DE794ED307ADB
:10377000B4EEC78AF1EE10FA7FF58EAEB8EEE77AB6
:10378000D4ED4B6A27EE267A84ED308A84ED317AC7
:1037900082E694ED1C7AF4EEC78AF1EE10FA7FF51A
:1037A0003AAFB8EEE77AD4ED4B6A27EE267AC4ED4D
:1037B0001C8A84ED1D7A2EE70023237652E400BF95
:1037C000DB0F4940DB0FC9400000000006207047B6
:1037D000002300224FF480718362C362036343635A
:1037E0008363C363036443648364C36403654365A1
:1037F0008365C365036643668366C3660367436781
:103800008367C367C0F88030C0F88430C0F8883060
:10381000C0F88C30C0F89030C0F89430C0F89830C0
:10382000C0F89C30C0F8A0308284C0F8A430C0F842
:10383000A830C0F8AC30C0F8B030C0F8B430C0F830
:10384000B830C0F8BC30C0F8C030C0F8C430C0F8E0
:10385000C830C0F8CC30C0F8D030C0F8D430C0F890
:10386000D830C0F8DC30C0F8E030C0F8E430C0F840
:10387000E830C0F8EC30C0F8F030C0F8F430C0F8F0
:103880001831C0F8F830C0F80831C0F8FC3080F8C2
:103890003521426102764283818380F822200284AE
:1038A000C283C0F80C31C0F80031C0F81031C0F844
:1038B0000431C0F81431704770B54D680E46FFF7FB
:1038C00087FF95F82430DFED2A3A80F83431D5EDC2
:1038D000015AD5ED067A95ED056A95ED043AB7EEF5
:1038E000005ADFED244A65EEA35AB1EE087ADFED07
:1038F000226A0446C3EE063A67EEA66A84EEA76A19
:1039000067EE877A85EE257AC4ED023A84ED477A30
:1039100095F82220C6EEA45A06EE902AF8EEE66A42
:10392000C4ED485AC5EE265AC4ED4C5A6A7826EEC4
:10393000076A06EE902AF8EE666A27EE267A9FED71
:103940000F4A67EE877A84EE277ABCEEC77A0C4B73
:10395000C6EE265A236017EE103A0020C4ED4A5AEC
:10396000C4ED4B7AC4F83861A4F8243170BD00BFAF
:1039700000007A4400007042DB0FC9400000B443ED
:103980004953544D10B5FFF723FF04460020206033
:1039900010BD00BF38B54B68DFED2A3A93F82420FC
:1039A000B7EE005A80F83421D3ED015A93ED067A30
:1039B00093ED043A93ED056ADFED234A65EEA35AD1
:1039C000DFED226AF1EE087AC3EE063A67EE266A68
:1039D00084EE876A67EE277A85EE257AC0ED023A93
:1039E00080ED477A93F82220C6EEA45A06EE902A7C
:1039F000F8EEE66AC0ED485AC5EE265AC0ED4C5ABC
:103A00005B7826EE076A06EE903AF8EE666A27EED5
:103A1000267A9FED0F4A67EE877A84EE277ABCEE0E
:103A2000C77AC6EE265A17EE103A0D46C0ED4A5A2E
:103A3000C0ED4B7AA0F82431FFF7CAFEC0F8385128
:103A4000002038BD00007A4400007042DB0FC940FE
:103A50000000B44308B5FFF7BBFE002008BD00BF5F
:103A600003461B7D0020A3F10303B3FA83F35B0934
:103A70000B70704703469FED067AD3ED037A67EE2D
:103A8000877AFDEEE77A17EE903A00200B807047B8
:103A9000E02E65420346002083ED030A704700BF15
:103AA00007EE901ADFED0E6AF8EEE77A9FED0D7AD9
:103AB00067EEA67AF4EEC77AF1EE10FA03DB80ED3A
:103AC000057A002070479FED087AF4EEC77AF1EE90
:103AD00010FA96BF054BC0ED057A43610020704790
:103AE00035FA8E3C17F90E4417390FC417F90EC476
:103AF00003460020197170470346D3F8DC20D3ED4C
:103B0000077A5268D3ED034AB2F834C092ED0F5AE7
:103B100006EE90CA77EEE47AF8EE666A66EE856A9B
:103B2000B0EEE75AB4EE665ADFED0C5AF1EE10FA39
:103B3000B2F84C2098BFF0EE657A93ED027A06EE6B
:103B4000102A27EE877AB8EEC66AC3ED047A67EECC
:103B5000067A0020C1ED007A704700BF0000000027
:103B6000034693F8A8209FED077A0A70D3ED037AF5
:103B700067EE877AFDEEE77A17EE903A00204B80E9
:103B8000704700BFE02E6542D0F8DC20034690F875
:103B9000A900D1ED006A5268C8BB93ED327AD3ED2B
:103BA0002C7AB4EEE77AF1EE10FA1BD893ED306A76
:103BB000D3ED2E7A27EE067A67EE277A92ED0E6A1B
:103BC000B2F84C20C3ED087A07EE102A67EE867A29
:103BD000B8EEC77A67EE877A77EEA67A0020C1ED55
:103BE000007A704715DD77EEA77AB4EEE77AF1EE4A
:103BF00010FA0ED8D3ED307A93ED2E6A27EE277A9D
:103C000077EEA77A27EE067A77EEC77AD6E701280D
:103C100002D0DFED1A7AD1E793ED327AD3ED2C7A28
:103C2000B4EEE77AF1EE10FAC0D993ED366A07DD0B
:103C3000B4EEC67AF1EE10FA02D8D3ED307ABDE7D1
:103C4000B4EEC67AF1EE10FAE3DD77EE867AB4EEE2
:103C5000E77AF1EE10FADCD8D3ED2E5A93ED306A04
:103C6000D3ED357A27EE067A65EEA77A27EE257A28
:103C700077EE867A77EEC77AA0E700BF00000000F3
:103C80002DE9F0414E680025324604460027C56004
:103C900045618561C56105610562C0F8DC1000F110
:103CA000240812F8041B40460BF0A8F9A4F8A870E9
:103CB000D6ED0B7A9FED1F6AD6ED096AD6ED0A5A4A
:103CC00096ED100A67EE867AB7EE005A9FED1A7AE3
:103CD000338CD6ED120A85EE266AC4ED2C6AC4ED4B
:103CE0002D6A20EE077AC7EEA56A06F14C00A4F80B
:103CF000AA30A4F8AC304146C4ED307AC4ED317A34
:103D000084ED2E6A84ED027AC4ED2F6AC4F8C8509F
:103D1000C4F8D450C4F8CC50C4F8D050C4F8D8502B
:103D2000A4F8AE700BF0A2F9044B38462360BDE84E
:103D3000F08100BF5077D63DDB0FC940534F504D47
:103D400038B5044600252430E5606561A561E5616C
:103D5000256125620BF07AF90020C4F8C850C4F838
:103D6000D450C4F8CC50C4F8D050C4F8D850A4F8FB
:103D7000AE00206038BD00BF38B5044600252430B1
:103D80006561A561E561256125620BF05FF901239D
:103D900000202371C4F8C850C4F8D450C4F8CC50E3
:103DA000C4F8D050C4F8D850A4F8AE0038BD00BF55
:103DB00010B524300C460BF0CBF9002084ED000A3E
:103DC00010BD00BF70B504462DED028BD0F8DC307D
:103DD00082B0B0EE408AD4ED070A243094ED030A95
:103DE0000D465E6801900BF0BBF9D4F8DC30F0EEC4
:103DF000C06A5B689FED107A93ED0F6A9B8E019805
:103E000007EE903AF8EE677A67EE867AF4EE676A24
:103E1000F1EE10FA98BFB0EE470AF0EE480A84EDD2
:103E2000040A06F14C010BF0B9F9002085ED000AF7
:103E300002B0BDEC028B70BD000000000379012BC5
:103E400004D0022B28D01BB300207047D0ED067A97
:103E500090ED057A77EEC76AF5EEC06AF1EE10FADA
:103E60001ED41DDCD0F8DC2090F8A830D0ED337AD9
:103E7000526813BB90ED347A77EEC76AF5EEC06AEC
:103E8000F1EE10FA29D428DCC0ED077A0020704743
:103E90000023C361002070474369C361002070475D
:103EA000D0F8DC2090F8A830C0ED337A80ED347A79
:103EB00080ED067A5268002BDCD0012BE4D190F81B
:103EC000A93090ED347AD0ED326A002B7AD0012BF4
:103ED00018BFF0EE675A56D136E090ED2D5A90EDAE
:103EE000316A77EE675A66EE053AB0EEE54AB7EE0C
:103EF000003AB4EEE34AC3EE054ADFED806A80ED96
:103F00002C5AF1EE10FA84EE065AB0F8AC3080ED7F
:103F1000306AC0ED326AC0ED355AC0ED2E4A80EDF0
:103F2000365AA0F8AA3046D915EE903AB0EEC66AD5
:103F3000002BB8BFB1EE466A40F2011380ED306A43
:103F4000DFED6E6AA0F8A83090ED2C5AB4EEE65A78
:103F5000F1EE10FA75DA90ED366A40F19780B4EE22
:103F6000E66AF1EE10FAC0F2918090ED306AF6EE5A
:103F7000004A25EE065A66EE265A25EE246A75EEAC
:103F8000C65A75EEA75A37EEC77A92ED0C6AB5EEAF
:103F9000C07A76EE266AF1EE10FAC0ED326A47D4A6
:103FA00046DCB0F8AE30B0F8AA209A4243D90133CB
:103FB000A0F8AE3068E764EEA55A0123C0ED305A90
:103FC000A0F8A83090ED2C6AB4EEE66AF1EE10FA93
:103FD00037DA76EE065A45D5F4EEE65AF1EE10FAE7
:103FE00040DB90ED305AF6EE003A26EEA63AD0EDE0
:103FF0002E4A75EE055A26EE056AF0EE082A25EEE1
:10400000035A64EEA34A65EEA65A26EE226A24EE0F
:10401000855A90ED354A26EE236A75EEC55A24EE90
:10402000234A75EEC65A75EE845A75EEA75AAAE76A
:10403000F0EE657A28E70023A0F8AE3080F8A830CB
:1040400022E726EEA66AD0ED304AD0ED2E5AB6EE23
:10405000005A26EE246A65EE855A65EE865A75EE9C
:10406000A75A90E7F4EEE65AF1EE10FA0BD580ED80
:10407000337AF0EE477AF0EE475A84E7B4EEE66A18
:10408000F1EE10FAF3D4DFED1D5A7CE7B4EEE66AE8
:10409000F1EE10FA35EE066AF0D5B4EEE66AF1EE0E
:1040A00010FAEBDB90ED303AD0ED2E3AB6EE002A66
:1040B00066EEA64A63EE822A90ED354A25EE036A43
:1040C00023EE245A63EE265A64EE264A25EE225A3F
:1040D00024EE044A75EEC55A63EEA43A26EE026A4F
:1040E00022EEC44A75EEA35A84EE035A75EEC65A00
:1040F00075EE855A75EEA75A45E700BF000000002F
:10410000F8B54D689FED277AD5ED107A044667EE35
:10411000877A2A46C4ED027A00F124070E46384613
:1041200012F8041B0AF06AFF05F14C00D5ED120AE3
:1041300095ED100A39460AF099FF0020A4F8A8006E
:10414000D5ED0B7ADFED186A95ED097A95ED0A6ADF
:1041500067EEA67AF7EE005A2A8C0023C5EE876A2E
:1041600084ED2C7A84ED2D7A87EE867AC4ED2E6A62
:10417000C4ED307AC4ED317A84ED2F7AC4F8C830BA
:10418000A4F8AA20A4F8AC20A4F8AE00C4F8D43057
:10419000C4F8CC30C4F8D030C4F8D830C4F8DC60EF
:1041A000F8BD00BFDB0FC9405077D63D4B6870B5F6
:1041B0009A680D4604460E691268D3E900019047DB
:1041C000002835D12B689A68D3E90001126890471E
:1041D00000282DD13369C4F8C45023B1D3E90112AA
:1041E000186812689047736923B1D3E901121868FF
:1041F00012689047002300224FF480710D4DE36058
:10420000256023616361A36123626362A3626363C8
:10421000A363E36323646364A36484F89820A185A3
:1042200084F82F2084F8302084F84C20628162606A
:1042300070BD00BF4449544DD0F8C42038B5136850
:1042400015699A68044618685368984700282BD166
:10425000D4F8C4305B689A681868536898472B692B
:104260001BB19A681868536898476B691BB19A68C4
:10427000186853689847B8B900234FF4807284F8DF
:104280002F0084F8300084F84C002060E360236144
:104290006361A36123626362A3626363A363E363F5
:1042A00023646364A364A28538BD00BFD0F8C43022
:1042B0001B689A6818681369184700BF03469B7902
:1042C00000200B70704700BF002210B5D0F8C4303A
:1042D0008EB05B6806929A680C46186801A9136A4A
:1042E0009847069B23600EB010BD00BF002210B59A
:1042F000D0F8C4308EB05B6805929A680C46186896
:1043000001A9136A9847059B23600EB010BD00BF3A
:1043100006207047D0F8C43010B51B6804469A6870
:104320001868D368984750B9D4F8C4305B689A6865
:104330001868D3689847003818BF012010BD0120C5
:1043400010BD00BFD0F8C43010B51B6804469A6891
:1043500018689368984750B9D4F8C4305B689A6875
:10436000186893689847003818BF012010BD0120D5
:1043700010BD00BF0020704710B50446D0F8C4300F
:104380001B689A68186893689847D4F8C4305B68CB
:104390009A68186893689847002010BD38B504469D
:1043A000D0F8C420D2E90032996818688B68156883
:1043B0009847D4F8C4305B689A681868936898473F
:1043C000D5F814311868FFF745FB002038BD00BF51
:1043D00090F8983033B9D0F8C4301B689A681868E0
:1043E000536918470020704738B590F89850034635
:1043F0000C465DB1013D012D10D809B1052038BD35
:1044000083F89810FFF79EFF204638BD0029F5D0AD
:1044100083F89810FFF77EFF284638BD002038BD8E
:104420002DE9F0412DED028B9FED5C8AD0F8C43070
:1044300096B05B680E465A681F689B6805468DED0E
:10444000058A38461B6A09A9D2F8008098470446B5
:10445000002855D1D8F80830D8F800001B6902A907
:104460009847044600284BD197F85830012B4DD07F
:10447000F0EE485AB0EE487AD5F8C420DDED056A72
:104480001369526893ED006AB4EEC86AF1EE10FA4F
:10449000DDED0D7A126806D4B0EEC77AB4EEC67AB6
:1044A000F1EE10FA3BDD4FF4807793ED017AF4EEF4
:1044B000C76A93ED037AF1EE10FAF0EEE77AF4EEC4
:1044C000C76A93ED027AC8BF47F00207F1EE10FA0F
:1044D000B4EEE77A48BF47F08007F1EE10FAD2F861
:1044E000143127D418680DF10701FFF7B9FA9DF8C8
:1044F0000730012B29D0AB881F43AF8037805FBBCB
:10450000204616B0BDEC028BBDE8F0819DED027A2D
:10451000DDED045AB0EEC78A37EE257AACE7F0EE4F
:10452000E55AF4EEC65AF1EE10FACCBF4FF480779C
:104530000027BAE718680DF10701FFF791FA9DF817
:10454000073047F00407012B22D1AB881F4347F403
:104550000077BFB2AF80378000200221AB79104ACC
:1045600068811A4492790633EA710E4A284652F855
:1045700023302972984718B16B8943F004036B818B
:104580002046EB79AB7116B0BDEC028BBDE8F08133
:10459000AB881F43AF803780DEE700BF000000001C
:1045A000800D0100500D010038B502234FF0000EC0
:1045B0000D4A03728379B0F804C01A440B4D927906
:1045C00041EA0C01063355F82330A0F80AE0818057
:1045D000C2710446984718B1638943F004036381AC
:1045E000E3790020A37138BD800D0100500D01005A
:1045F00090F898300BB100207047012110B543812D
:1046000082790A4B01721344DB780332C371084B81
:10461000044653F82230984718B1638943F00403E5
:104620006381E3790020A37110BD00BF800D0100FC
:10463000500D010090F898300BB10020704710B574
:10464000094982794381895C0372084BC17153F82F
:1046500022300446984718B1638943F0040363810C
:10466000E3790020A37110BD800D0100500D010001
:1046700083880BB9002070474FF0000C032110B560
:10468000174A8379A0F80AC01A44527A0933C271D2
:10469000144A017252F823300446984718B16389CE
:1046A00043F00403638100224FF480710023E0791A
:1046B000A185A07184F82F2084F8302084F84C2044
:1046C0000020E36023616361A36123626362A362EC
:1046D0006363A363E36323646364A364A28010BD84
:1046E000800D0100500D010070B503790268022BA6
:1046F000146882B005D0032B2DD0012B1DD002B041
:1047000070BD94F84C30D4F83CE084F86030D4F8B4
:10471000C430D4F840C05B68656C9E681868A26CB1
:10472000336904F15001C4F850E0C4F854C0A565E1
:10473000E26502B0BDE870401847D4F8C420936821
:10474000002BDCD003218DF80410D268684600925B
:10475000984702B070BDD4F8C43019690D69002DB6
:104760002DD094F89810012929D15368D4F868C045
:104770001B68A66D5B686946DB689A681868136BEE
:10478000C4F8A4C0C4F8A8609847BDF8023004F18A
:10479000A401A4F8AC309DF8003084F8AE30AB68CA
:1047A00028689B699847AB6804F19C015B6928689D
:1047B0009847AB6828681B6A9847D4F8C4309A6851
:1047C000002A9CD004218DF80410DB686846009311
:1047D000904702B070BD00BFF0B503790568013B9A
:1047E0002C6885B0032B3BD8DFE803F0024C443C37
:1047F000D4F8C43004F164015B689A681868136ADD
:104800009847A36E626E2361D4F88830E260D4F8D2
:104810008420A36294F88E306262B4F88C2084F80D
:104820002F3094F88F30E06E216FD4F88050A2853D
:10483000D4F8C42084F83030936825626061D4F8DD
:104840009050D4F89400A161E16F6563A063E161C9
:1048500033B101218DF80C10D26802A8029298475A
:1048600005B0F0BDD4F8C430586805B0BDE8F040DC
:1048700001F0D2BAD4F8C430586805B0BDE8F040B1
:1048800001F0C2BAD4F8C4301B691A691AB194F89D
:104890009810012947D027465E69002E3CD097F832
:1048A0009830022B38D16B68D7F868C01B680DF1BF
:1048B00006015B68DB689A681868D368C7F8BCC0F3
:1048C0009847BDF9063007F1BC0107EE903AF8EEC3
:1048D000E77AB36830689B69C7ED307A9847B36868
:1048E0003068DB699847B36807F1B0015B693068ED
:1048F000984740F20113ADF80830D7ED2C7AFDEE61
:10490000E77A6B6802A91B689A681868536917EE02
:10491000902AADF80A209847D4F8C4209368002B59
:104920009ED0022196E793681068DB6998474FF4A0
:104930008073ADF808306B68B4F89C201B68ADF844
:104940000A209A68186802A9536998472F68D7F80F
:10495000C4301B69A0E700BF0346002083ED080AAE
:10496000C3ED090A83ED0A1A704700BF036F1B7C71
:10497000012B37D0D0ED026A90ED0C5A90ED037AFE
:10498000D0ED0D5AD0ED047A90ED0E6A76EEC56A40
:1049900037EE657A77EEC67AC1ED006A81ED017A6D
:1049A000C1ED027A90ED187AD0ED195AD0ED177A50
:1049B000D0ED156A9FED106A37EE657A77EEA77A2B
:1049C00066EE866A77EE677A67EEA67AD0F814C04C
:1049D0008269C3690020C1ED047AC1F80CC04A6144
:1049E0008B617047D0F808C0C2680369C1F800C085
:1049F0004A608B60D6E700BF3FC61C3F03460021DC
:104A00000022084683F82C10D985DA631A645A64A8
:104A1000704700BF30B4EFF31084012383F3108894
:104A2000144B1A682AB94FF0400C134D2A7385F8BD
:104A30000CC01A6801321A6084F31088020A0F4C05
:104A4000120152FA80F044F82010EFF31082012195
:104A500081F31088196811B11968013919601B6850
:104A60001BB9802004490B73087382F3108830BC93
:104A7000704700BF900C002000FD014000F801408D
:104A8000F8B50446036F02215A691D6A5368D3E9D9
:104A90000127DE68106802F0D7F80221386802F0BA
:104AA000D3F80221306802F0CFF8D4E913130F4A8B
:104AB000288C11401340C4E91313FFF7ABFF216D9D
:104AC000688CFFF7A7FFE16CA88CFFF7A3FF216DAF
:104AD000E88CFFF79FFFE16C288DFFF79BFF216DAE
:104AE000688DBDE8F840FFF795BF00BFFFFFFE0FE0
:104AF00038B5056F04462B6A1B8C002B2DD1002284
:104B0000002384F82C2084F86C202968A360E360DB
:104B10002361636123626362A36223636363A363AC
:104B2000E36323646364E28519B1CB680868DB6AD8
:104B300098472B7C012B08D06B691BB19A681868C9
:104B4000936998470020206038BDEB68002BF3D0B4
:104B5000DA681868D36A9847EEE7FFF791FFCEE767
:104B6000036FD1ED006A1B6A91ED017A9B7F012BE7
:104B700059D0D1ED027AD0ED165A90ED1A6A66EE50
:104B8000A56A76EE866AC2ED006AD0ED165A90EDFF
:104B90001A6A27EE257A37EE067A82ED017AD0ED91
:104BA000165A90ED1A6A67EEA57A77EE867AC2ED0C
:104BB000027A90ED186AF4EEC66AF1EE10FAD0EDC2
:104BC000195A10DDB4EEC67AF1EE10FA82ED006AE1
:104BD00015DDF4EEC67AF1EE10FA82ED016A1ADD07
:104BE00082ED026A7047F4EEE56AF1EE10FAB4EE77
:104BF000C67A48BFC2ED005AF1EE10FAE9DCB4EE15
:104C0000E57AF1EE10FAF4EEC67A48BFC2ED015A29
:104C1000F1EE10FAE4DCF4EEE57AF1EE10FA48BFBA
:104C2000C2ED025A7047F4EEC76AF1EE10FAD1ED08
:104C3000027AD4BFF0EE475AF0EE665AF4EEE57A07
:104C4000D4BFB0EE666AB0EE476AF1EE10FA13DC3C
:104C5000F4EEC67AF1EE10FA54BF75EE865A77EE8E
:104C6000A55AB6EE006A25EE866A76EEC66A37EE7B
:104C7000467A77EEC67A7EE737EE866AF6EE005A17
:104C800026EE256AF1E700BF2DE9F04F2DED028BEE
:104C90000023044693B0CDE90433CDE907330393F1
:104CA0000693036FB0F804A05E691F6A7368B0F8DA
:104CB00006905D6809A9AB6828681B6A9847B7EE3B
:104CC000008AD4ED057A88EE277A236AC4ED157A36
:104CD0000393636A84ED167A0493A36A03A92046BA
:104CE00006AA0593DDF82C80FFF73AFF07EE90AA9D
:104CF000DDED066AF8EEE75A78EE666A06EE109A7F
:104D00009DED077ABAEEEF6A38EE477ADDED087A64
:104D100066EEA56A78EE677A27EE257A76EE866AE1
:104D200040F2032367EEA57A37EE067AFCEEE66AD8
:104D300037EE868AA4F84830FCEEC77A16EE903A31
:104D4000BCEEC88A1FFA83FC17EE903A99B218EEAF
:104D5000103A8C459BB280F28280624601208C46DC
:104D60004FF0020A114684F849009C4574DA624605
:104D7000D1469C4684F848A013464FF0030A994256
:104D800009DA8E464A46194684F8499084F8480064
:104D90008146734610463A6BCC1A944263DA02EBB2
:104DA000030EF045D8BF08F1FF3ECEEB4101ACEB5E
:104DB0000E04A2424EDD02EB0E0BD845D8BF08F11F
:104DC000FF3BCBEB4C0C01297C6BB8BF0121BCF144
:104DD000010FA2EB0404B8BF4FF0010CB9F1020FB0
:104DE000AEEB0402ABEB04045DD0B9F1030F3FD08E
:104DF000B9F1010F53D000231F46984602283BD03B
:104E0000032848D0012841D01946B9464046BAF196
:104E1000020F38D0BAF1030F27D161465B46CDE9C6
:104E20000E30B368CDE910911B690CA9CDE90C8750
:104E3000306801929847019A0021286801F014FF18
:104E400022460321286801F00FFF13B0BDEC028B4E
:104E5000BDE8F08FE346B6E74FF003098FE7022085
:104E60004FF0010A81E78E46A1E76046D846D6E7B3
:104E700000270228B846C3D1BAF1020F8946774607
:104E800019464046C6D1E1465F46C8E70846F046A7
:104E9000B9461946BBE77346B9464046B7E7984658
:104EA00000231F46AAE71F4600239846A6E700BF37
:104EB00070B50468844B22688CB09A4201D00CB063
:104EC00070BD0379002BFAD1256FADF8083001933E
:104ED0002B6801AAD96818688B69E9792E6A984706
:104EE0002B68297ADA68186893690DF106029847E9
:104EF0002B68697ADA681868936902AA98472B6860
:104F00000121186803AA02F053FCD4ED0C6AFCEEF0
:104F1000E66A94ED0E7ABDF80630D6ED044A05EE49
:104F2000903ABDF8083096ED035A06EE103A16EEA8
:104F3000903AD6ED027ABCEEC77ABDF810109BB25B
:104F4000C1F30B01CB1AC5EE243A87EEA45A07EE43
:104F5000903A17EE103ABDF814209BB2C2F30B0240
:104F6000D31AF8EEE76AB8EE466A07EE903ABDF853
:104F7000040096ED0B3A96ED064AF8EEE77AADF8A6
:104F80001010ADF8142084ED076A06EE100A77EED3
:104F9000C37AB8EE466A26EE857A67EEC57A66EE83
:104FA000236AF8EE655A66EE846A37EE276A94F84B
:104FB0004830C4ED056A022BC4ED065AF1EE466A8C
:104FC00053D0032B69D0012B5CD0DFED406AF0EEAB
:104FD000667AB0EE667A94F82C30012B37D007EE63
:104FE000901AB8EE677A07EE902AF8EE677A226F89
:104FF000936984ED027AC4ED047AA3B101218DF89E
:105000000C10D26903A804929847226F936933B1B8
:1050100002218DF80C10D26903A80492984794F8E5
:105020002C30012B1DD00023204623626362A36233
:10503000FFF72AFE226F9369002B3FF440AF032154
:105040008DF80C10D26903A80492984737E7226FB5
:1050500084ED027A9369C4ED037AC4ED046A002BEF
:10506000CCD12046FFF710FEE4E794F84930B0EECB
:10507000476A032B1ED0B0EE667AF0EE676AF0EE58
:10508000467AA8E794F84930022BA4D1B0EE676ABB
:10509000F0EE667AF0EE466A9DE794F84930B0EE9D
:1050A000476A012B0BD0B0EE677AF0EE667AF0EE2D
:1050B000466A90E7B0EE677AF0EE467A8BE7B0EE9C
:1050C000667AF0EE466A86E74152444D00000000E1
:1050D000F7EE007A07EE100A37EEC00AF8EEC76A5C
:1050E00007EE101A77EEE00ABAEEEF7A20EE260A03
:1050F00060EEA60A30EE070A37EEC11A70EE870A94
:10510000BCEEC00A21EE261A10EE103AFCEEE00AC0
:1051100071EE077A51699AB210EE903AFCEEE77A96
:1051200000B59BB287B0CDE9002317EE903A9BB251
:10513000029321B18B6808681B696946984707B0DC
:105140005DF804FB2DE9F843036F04461E6A0D4623
:10515000308C00284ED194F82C30CBB9226F117CC2
:10516000012919D1B28BE08D904275D294ED0F7A5E
:10517000D4ED117A94ED026AD4ED046A37EE067A22
:1051800077EEA67A84ED0F7AC4ED117A0130E085CE
:105190002B700020BDE8F88394ED1A1AE188F0EE38
:1051A000410AB0EE410AA088FFF792FFB38BE28D6F
:1051B0009A4268D2D4ED0F6A94ED107AD4ED117A48
:1051C00094ED025AD4ED035A94ED046A76EE856AA2
:1051D00037EE257A77EE867A94F82C300132C4EDDA
:1051E0000F6A84ED107AC4ED117AE2852B700020ED
:1051F000BDE8F8835B69E16C5A68236D41F4803146
:1052000043F48033D2E90198D768C4E91313FFF758
:1052100001FC216D708CFFF7FDFBE16CB08CFFF79A
:10522000F9FB216DF08CFFF7F5FBE16C308DFFF79A
:10523000F1FB216D708DFFF7EDFB0221D9F8000025
:1052400001F0F2FC0221D8F8000001F0EDFC02218F
:10525000386801F0E9FC7EE707EE902A94ED0F7ABA
:10526000F8EEE77A94ED116AC7EE276A0B4686EEF0
:10527000277AC4ED0C6A84ED0E7A84F82C102B701A
:105280000020BDE8F88307EE903AD4ED0F6AF8EEFF
:10529000E77A94ED107AD4ED115A012286EEA76ACE
:1052A0001346C7EE276A85EEA77A84ED0C6AC4ED33
:1052B0000D6A84ED0E7A84F82C202B700020BDE856
:1052C000F88300BF90ED1A1A38B50446026FC18802
:1052D000156A8088F0EE410A84ED081A84ED091AF7
:1052E00084ED0A1AB0EE410AFFF7F2FE2B8CA3B947
:1052F0000020002384F82C0084F86C00A360E36095
:105300002361636123626362A362E0852363636355
:10531000A363E3632364636438BD2046FFF7B0FBF7
:10532000E6E700BF754B02689A4200F0CF804FF469
:105330007A7CF0B50E6A0D4632880167B1887788AD
:1053400011FB02F10CFB02F20446B2FBF7F2002063
:10535000002384F82C00520804F1540C06F1380E96
:10536000E180E085A360E36023616361236263629F
:10537000A36223636363A363E36323646364A28020
:10538000BEE80F00ACE80F009EE80700D6ED117AEA
:10539000F5EEC07AF1EE10FA8CE8070083B007DD75
:1053A000B7EE007AF4EEC77AF1EE10FA40F2908090
:1053B000D6ED127AF5EEC07AF1EE10FA0BDDD4EDEF
:1053C000186AB6EE007AC4ED197A77EEA67A67EE1F
:1053D000877AC4ED1A7A6B69002B2DD05968484A38
:1053E00048684068C769474897F801E0BEF1000F78
:1053F0000CBF94468446C4F84CC0FF78012F18BFF8
:10540000024622659A681868136898472B7C012B1E
:105410004AD16B693C495B685B689A681868976A0F
:1054200004F198032246B847338C002B4AD16B69AC
:105430009A681868536898472B68002B2FD0DA6851
:1054400059681268186890472B68D3E902121868E7
:10545000526890472B685968DA6818684969126A77
:10546000904701238DF804302B6801A9DA68186889
:10547000536998479DF80430012BF5D02B7C012B04
:1054800008D02A6804F17803D16810688E6A224631
:105490001E49B0472B68DA6818689368984700205F
:1054A000164B236003B0F0BD94ED1A1A226FF0EE94
:1054B000410AB0EE410AE188A088FFF709FE338C6B
:1054C000002BB4D02046FFF7DBFAB0E70E20704780
:1054D000D4ED196AB6EE007AC4ED187A77EEA67AA2
:1054E00067EE877AC4ED1A7AD6ED127AF5EEC07AB5
:1054F000F1EE10FA3FF763AF6DE700BF4152444D44
:105500000400000305000003B14E00001155000027
:10551000F0B50027446889B0256F05972B682E6A7F
:1055200006970797002B00F0AB80DA681868297996
:10553000936905AA98472B7C032B73D0ADF816709E
:105540002B68A979DA681868936906AA98472B68C6
:10555000E979DA68186893690DF11A0298472B689F
:10556000297ADA681868936907AA98472B68697AD4
:10557000DA68186893690DF11E029847BDF8143077
:1055800006EE903ABDF81630F8EE666A07EE103A6D
:10559000BDF81830B8EE477A07EE903ABDF81A30E9
:1055A000F8EE677A06EE103ABDF81C30F8EE464A7F
:1055B00004EE103ABDF81E30B8EE444A05EE903ABB
:1055C000F8EE655AD6ED043A96ED032A96ED055AA3
:1055D000D6ED022A82EE236A96ED063A76EEC56A89
:1055E000C4ED075A37EE457AC2EEA35A77EEC57A74
:1055F00026EE246A66EEE56A27EE657A67EEE57ABE
:1056000026EE036A374B226884ED064A9A42C4EDBF
:10561000026A84ED037AC4ED047A84ED056A0AD047
:1056200009B0F0BD2B686979DA68186893690DF1E3
:105630001602984784E7226F936983B10121D269EA
:10564000684601928DF800109847226F936933B134
:10565000D2696846019202228DF80020984794F89A
:105660002C30012B19D0226F9369002BD8D0032145
:10567000D269684601928DF80010984709B0F0BDD4
:10568000DFED195AB0EE654AF0EE654AF0EE657A44
:10569000B0EE657AF0EE656A94E70023CDE9053354
:1056A0000793D4ED057AF7EE006A86EEA77A236AAF
:1056B000656A0293A36A204605AA02A9C4ED157A79
:1056C00084ED167A03950493FFF74AFA9DED071AC5
:1056D000DDED060A9DED050A226FE188A088FFF73F
:1056E000F7FCC0E74152444D0000000030B50D6AA0
:1056F0004FF47A73D5ED117AF5EEC07A0446288816
:105700006A8800FB03F3B3FBF2F3F1EE10FAAA8808
:105710004FEA530312FB00F204F1540C05F1380E6A
:105720002167E280A380BEE80F00ACE80F009EE88E
:1057300007008CE8070006DDB7EE007AF4EEC77AC2
:10574000F1EE10FA14D9D5ED127AF5EEC07AF1EE39
:1057500010FA0BDDD4ED186AB6EE007AC4ED197AB2
:1057600077EEA67A67EE877AC4ED1A7A002030BD0C
:10577000D4ED196AB6EE007AC4ED187A77EEA67AFF
:1057800067EE877AC4ED1A7AD5ED127AF5EEC07A13
:10579000F1EE10FADEDCE9E70346012200201A717F
:1057A000704700BF00B58E4600F5807CBEE80F0054
:1057B000ACE80F00DEF800300020CCF800305DF8D7
:1057C00004FB00BF0346002083ED040AC3ED050A75
:1057D000704700BF0346002083ED0C0AC3ED0D0A9D
:1057E000704700BF034600B5D1F800C0D1F804E00F
:1057F00089680020196211685268C3F81CE0C3F878
:1058000018C0D9629A645DF804FB00BF436ED0ED06
:105810000C6A1B699FED306A9A6B10B512880C46B2
:1058200007EE102AB8EEC77AC6EE877A67EE867A58
:10583000D0F824C0816AD0F81421C4F800C0616097
:10584000D0F834C0816CC4F814C0A160D0F84CC04A
:10585000816BC4ED036AC4ED047AC4F81CC0A16175
:10586000D0F854C0016DC4F824C0216290F85810DB
:1058700084B084F828101B78012B1CD0032B02D095
:10588000002004B010BD936801A910685B6B9847B5
:105890000020029A039B9DF80410E26223639DF8A6
:1058A00005209DF8063084F8291084F82A2084F811
:1058B0002B3004B010BD936810685B6B01A998474A
:1058C00000209DF804209DF8053084F8292084F8F4
:1058D0002A3004B010BD00BFEBC91841034610B414
:1058E000D3F834C01A4C93ED065A93ED087A93ED31
:1058F000076AC4F814C0D4ED046AC4F814C0D4ED27
:10590000055ADFED144ADFED147A66EEA46A65EEFF
:10591000A45A36EE476A26EEA77A67EEE57A66EE77
:10592000266A27EE057A26EE256A67EE857A37EE37
:10593000067A77EEA67A83ED097AC3ED0A7A81EDCD
:10594000007A9B6A00205DF8044B1360704700BF2B
:1059500000100240F304353FD7B3DD3F1F4B90EDFD
:10596000004AD0ED014A83ED050ADFED1D6AD3ED53
:10597000045A83ED050A25EEA67A93ED055AF1EE59
:10598000477A65EE266A35EE476A77EEC57A36EED7
:10599000A55A76EEE55A24EE077A64EEA66A26EE5C
:1059A000046A67EE847A25EE245A65EEA45ADFED88
:1059B0000D3A37EE667A9FED0C3A76EE056A77EE91
:1059C000A57A27EE037A66EEA36A67EEA37A81EDE5
:1059D000007AC1ED016AC1ED027A70470010024001
:1059E0003ACD133FF304353FF304B53F38B50446D1
:1059F00002680868374B0D69C4F8180148689A4274
:105A0000C4F8140164D04FF0000C84F804C084F88A
:105A100058C095ED0C0A0020DFED2F7A6166696BA6
:105A200020EE270A04F17C0304F16802A060E06024
:105A3000206160616062A062E06220636063E06395
:105A400020646064A066E0676067C4F88800A167AE
:105A5000C4F88C10D5E90E0108F080FD6968AA68C9
:105A6000EB682869C4F89010C4F89420A9696A69A1
:105A7000C4F89830EB69C4F89C00286AC4F8A020E8
:105A80006A6AC4F8A830AB6AC4F8AC00C4F8A410C1
:105A9000C4F8B020C4F8B43095F82C3004F190006C
:105AA00084F8FC3008F088FDD4F8183123B1D3E92C
:105AB0000112186812689047D4F8143123B1D3E961
:105AC0000112186812689047024B0020236038BD0D
:105AD0000E2038BD4350434D6F12833A10B5044633
